:020000040000fa
:080000000002040000000000f2
:020000040000fa
:100400006f8e20008077240000018800000000002b
:10041000050007000c000700340302000000000084
:100420000040da000000fe004440a9000000200067
:100430000000e0000300320000002000a00188005e
:100440004440a80000000600206a210001002000ae
:100450001600370062004000e080480091018800eb
:100460009001ba0062004000e080480091018800dd
:100470009002ba0062004000e08048000002eb00f9
:100480006028e10005003a008301e900070033001d
:10049000038009000059eb00040037006128e100e7
:1004a000010032000082eb00050007009101880086
:1004b0001001ba000200e000e6ff3a00000005006b
:1004c000910188008002780062004000e0804800ce
:1004d0003559ba008301e900080032002559ba00f5
:1004e0008301e900050032000400e000f4ff32005f
:1004f00015d9ba008301e900f1ff3a0000000600b7
:100500000600fa00000f78000000eb0010079800ca
:100510009e00900010032000808f50000e003e00cf
:100520000000eb00200798002e0090009e0f500066
:1005300005003100000000002e0090000000e800df
:1005400020079800f8ff37001e0090000000e80028
:1005500010079800eeff37000080fa000000060048
:10056000801f78000000fa0089e0a9003042800076
:100570000000e8003042880030428000f30f500055
:10058000060034000000eb0030428800100020001c
:10059000204288000040eb0050e8b7000080fa00dd
:1005a0004f007800004006000000fa0087c0a90054
:1005b0000080fa0000400600801f78000000fa006a
:1005c0000ac4bf000080fb000000d1000080fb00d7
:1005d000610060000000e0001900320020c4bf008c
:1005e0000080fb000000d1000080fb006100600083
:1005f0000000e0000500320050c0b300cae8b700b8
:1006000010c0b300cde8b7000b00370020c4bf0016
:100610000080fb004200de000080fb006100600003
:100620000000e0000400320050c0b300cae8b70088
:1006300020c0b300cde8b7000a24a90006003700a7
:100640000ac4bf000080fb00610060000000e00001
:10065000010032000a04a9008860a9000080fa00a5
:100660004f007800004006000600fa00803e20009f
:10067000000f7800cda2a900cdc2a900d202a90026
:100680000060fe006000b800704688008146880067
:100690000000eb00a04588000000eb00104288003d
:1006a0000000eb00204288000040eb004ce8b7005f
:1006b0000040eb004de8b7000040eb004ee8b7000b
:1006c0000040eb004fe8b7000040eb0050e8b700f7
:1006d0000000eb00304288000000eb00d0418800b1
:1006e0000000eb00e04188000000eb00f0418800d2
:1006f0000000eb0000428800802520005042880066
:100700000000eb009042880010c0b30054e8b7002e
:100710000000eb00b04288000000eb00c0428800ff
:100720000000eb00d04288000000eb00e0428800af
:100730000000eb00f04288000000eb00004388005e
:1007400000202200103a8800e422a900e402a90057
:10075000e442a900e462a900d2e2a900d242a900c1
:10076000d222a900d262a900de22a900de02a800de
:10077000e5e2a900d302a800d322a800d342a80032
:10078000d362a800d282a800d2a2a800c6a2a80064
:10079000c682a800d1c2a900d1a2a900d602a90090
:1007a000e5a2a900e9a2a800e5c2a9002ca3a8001f
:1007b0002c83a8006ca3a8006c83a800e6010700a6
:1007c000030207007d020700210207005b02070009
:1007d000c6040700ae040700580207009c08070083
:1007e0003b0907009860a8000c24a8000060fe00e8
:1007f000e9a2a9000060fe00a08c200051c0b30057
:1008000090cf10001a003a00a08c20006207070069
:100810007246800083468000100020000100200006
:10082000800f5100818f590003003a001000200012
:10083000104288000c003700e4c8bf000080fb00b5
:100840004400dd000080e8006101b90070468000ce
:1008500081468000820f5000838f580002003a00ca
:1008600010c0b3004ce8b70060c0b300cae8b700de
:100870004208e20019013200d1c2a800d1a2a800aa
:10088000d602a800007d20001dff0700e05b2000cd
:10089000000f7800701b20009e0f100041003400f4
:1008a0000000eb00100798001e0090000000e00020
:1008b0003a003c001e00780020079800e822a800bb
:1008c000e802a800e842a800e862a800d6e2a90071
:1008d000d642a900d622a900d662a9002e00900017
:1008e0000000e0000e0032000000000000000000e8
:1008f00000000000000000000000000000000000f8
:1009000000000000000000000000000000000000e7
:100910002e0090000000e90020079800efff37004c
:100920009e00780021079800e822a900e802a900ab
:10093000e842a900e862a900d6e2a800d642a800d1
:10094000d622a800d662a8002e0090000000e00089
:100950000e00320000000000000000000000000057
:100960000000000000000000000000000000000087
:100970000000000000000000000000002e009000b9
:100980000000e90020079800efff37001e009000ec
:100990000000e80010079800c3ff37001e0fe900b1
:1009a000bcff3700d6e2a900d642a900d622a90092
:1009b000d662a90000322000d1fe07000000eb0043
:1009c0001042880078010700910107002e020700fd
:1009d0004408e20002003a0000000000fcff37007b
:1009e0000000eb002042880010002000dc0207001d
:1009f0000040880020002000d90207001040880035
:100a000030002000d602070020408800400020006f
:100a1000d30207003040880050002000d0020700b9
:100a20004040880060002000cd0207005040880050
:100a300080002000ca02070060408800700020008b
:100a4000c7020700704088009a0207005c01070097
:100a50007b0107000060fe00813220009140780099
:100a600000ceb30000c060000044a00028e3b7003f
:100a700021e3a800000000000000000000000000ca
:100a8000000000002023a80020c3bf000080fb005e
:100a9000610060000000e000fbff320000188000f1
:100aa0003041880021e3a900813220009140780084
:100ab00000ceb30000c06000d040b30028e3b70010
:100ac00021e3a8000000000000000000000000007a
:100ad000000000002023a80020c3bf000080fb000e
:100ae000610060000000e000fbff320001188000a0
:100af0004141880021e3a900813220009140780023
:100b000000ceb30000c060003040b30028e3b7005f
:100b100021e3a80000000000000000000000000029
:100b2000000000002023a80020c3bf000080fb00bd
:100b3000610060000000e000fbff32000018800050
:100b40005041880021e3a9008132200091407800c3
:100b500000ceb30000c060000004a00028e3b7008e
:100b600021e3a800000000000000000000000000d9
:100b7000000000002023a80020c3bf000080fb006d
:100b8000610060000000e000fbff320001188000ff
:100b90006141880021e3a900813220009140780062
:100ba00000ceb30000c060009040b30028e3b7005f
:100bb00021e3a80000000000000000000000000089
:100bc000000000002023a80020c3bf000080fb001d
:100bd000610060000000e000fbff320000188000b0
:100be0007041880021e3a90028c3bf0001ceb300f3
:100bf0000140600028e3b70021e3a80000000000e6
:100c00000000000000000000000000002023a800f9
:100c100020c3bf000080fb00610060000000e00016
:100c2000fbff3200011880008141880021e3a90008
:100c3000813220009140780000ceb30000c06000f7
:100c4000a040b30028e3b70021e3a80000000000a3
:100c50000000000000000000000000002023a800a9
:100c600020c3bf000080fb00610060000000e000c6
:100c7000fbff3200001880009041880021e3a900aa
:100c8000813220009140780000ceb30000c06000a7
:100c9000b040b30028e3b70021e3a8000000000043
:100ca0000000000000000000000000002023a80059
:100cb00020c3bf000080fb00610060000000e00076
:100cc000fbff320001188000a141880021e3a90048
:100cd000d1a2a900d1c2a900d602a9004c48e200c5
:100ce000c4fe320010c0b300b9e8b70040c0b30082
:100cf000bae8b7000040eb00bbe8b700e4c8bf00ab
:100d00000080fb004800dd000000e800cf80de002e
:100d1000e0458800f1458800004080004800de0082
:100d2000c0e8b70000c8bf00c1e8b700304180008c
:100d30004800de00c2e8b70026c8bf00c3e8b7001d
:100d4000104080004800de00c4e8b70002c8bf00c1
:100d5000c5e8b700404180004800de00c6e8b700a3
:100d600028c8bf00c7e8b70080c0b300c8e8b70014
:100d7000808b20002005070040382000e0fd0700a0
:100d800010c0b300b9e8b70040c0b300bae8b7007c
:100d90000040eb00bbe8b700e4c8bf000080fb00e8
:100da0004800dd000080e800cf80de00e0458800dc
:100db000f1458800204080004800de00c0e8b70010
:100dc00004c8bf00c1e8b700504180004800de0001
:100dd000c2e8b7002ac8bf00c3e8b70030408000af
:100de0004800de00c4e8b70006c8bf00c5e8b70089
:100df000604180004800de00c6e8b7002cc8bf0094
:100e0000c7e8b70080c0b300c8e8b700808b2000f7
:100e1000f904070040382000b9fd070010c0b300f6
:100e2000b9e8b70040c0b300bae8b7000040eb0033
:100e3000bbe8b700e4c8bf000080fb004800dd004d
:100e400063004000cf80de00e0458800f145880067
:100e5000404080004800de00c0e8b70008c8bf007e
:100e6000c1e8b700704180004800de00c2e8b7006a
:100e70002ec8bf00c3e8b700504080004800de0025
:100e8000c4e8b7000ac8bf00c5e8b70080418000c9
:100e90004800de00c6e8b70030c8bf00c7e8b700aa
:100ea00080c0b300c8e8b700808b2000d2040700e0
:100eb0004038200092fd070010c0b300b9e8b70029
:100ec00040c0b300bae8b7000040eb00bbe8b70091
:100ed000e4c8bf000080fb004800dd006400400063
:100ee000cf80de00e0458800f1458800604080004a
:100ef0004800de00c0e8b7000cc8bf00c1e8b7007a
:100f0000904180004800de00c2e8b70032c8bf0050
:100f1000c3e8b700704080004800de00c4e8b700b6
:100f20000ec8bf00c5e8b700a04180004800de0041
:100f3000c6e8b70034c8bf00c7e8b70080c0b30038
:100f4000c8e8b700808b2000ab0407000040eb002e
:100f50004ce8b70027fe37000000fa002de1a90099
:100f6000c112200091407800f0ccb30000c06000b6
:100f70002ce1b7002c21a900f0e1240040098800f1
:100f80000000eb0010098800d10580000000270058
:100f900000807000d005880089e0a90099e0a800d1
:100fa0000080fa00000006000000fa000000eb00dc
:100fb000100988002de1a8000080fa00000006005a
:100fc0000000fa002de1a9000080fa0000000600f0
:100fd0000000fa0011e1a9000000eb0030088800d1
:100fe000e0ff2f0060088800011120009140780088
:100ff000f0ccb30000c060000044a00010e1b700d6
:101000001021a90010c1a9000080fa00000006000c
:101010000000fa000000eb003008880001112000f9
:1010200091407800f0ccb30000c060000044a00004
:1010300010e1b70011e1a8000080fa0000000600ee
:101040000000fa0011e1a9000080fa00000006008b
:101050000000fa001132200091407800c0cfb300a8
:1010600000c0600021e3b70023c3bf007f406000e1
:1010700023e3b700013220009140780000ceb30096
:1010800000c0700020e3b7002043a9002143a8005e
:101090002063a90025e3a900513220009140780087
:1010a00000ceb30000c060003040b30025e3b700bd
:1010b00020c0b30024e3b7002343a900213220005d
:1010c0009140780030ccb30000c0600022e3b7004c
:1010d000813220009140780000ceb30000c0600053
:1010e0009040b30028e3b70028e3a90010002000d7
:1010f00070198800b0e0220080198800e0ff2f00fe
:1011000050198800401f2d0060198800cc22a800cb
:10111000c7a2a800c662a800c622a800c722a800cd
:10112000c602a800c742a800c762a80085a0a900ff
:1011300095a0a9000080fa00000006000000fa0057
:10114000de82a800dea2a90087c0a9000008200056
:10115000c01188003002a9000123200091407800ce
:1011600090cfb30000c0600030e2b70030a2a90009
:101170001123200091407800c0cfb30000c0600070
:1011800031e2b70033a2a90033e2a90032c2bf00a6
:10119000f043b20032e2b70031e2a8003342a800c7
:1011a00097c0a80097e0a90087e0a90097e0a900f0
:1011b00087c0a9000080fa00000006000000fa00c5
:1011c000211420009140780080cfb30000c060005f
:1011d00042e1b70042e1a80061142000914078008c
:1011e00080cfb30000c0600046e1b70046e1a80030
:1011f000a11420009140780080cfb30000c06000af
:101200004ae1b7004ae1a800e114200091407800cb
:1012100080cfb30000c060004ee1b7004ee1a800ef
:10122000211520009140780080cfb30000c06000fd
:1012300052e1b70052e1a80061152000914078000a
:1012400080cfb30000c0600056e1b70056e1a800af
:10125000a11520009140780080cfb30000c060004d
:101260005ae1b7005ae1a800e1152000914078004a
:1012700080cfb30000c060005ee1b7005ee1a8006f
:101280000080fa00000006000200fa0000000000e2
:1012900042c1bf000080fb004300de000080fb0075
:1012a00061006000e10f500003003a00000a800076
:1012b000000f7800f6ff37000000000046c1bf00b5
:1012c0000080fb004300de000080fb006100600046
:1012d000e10f500003003a00200a8000000f780060
:1012e000f6ff3700000000004ac1bf000080fb008d
:1012f0004300de000080fb0061006000e10f500051
:1013000003003a00400a8000000f7800f6ff370023
:10131000000000004ec1bf000080fb004300de0063
:101320000080fb0061006000e10f500003003a0004
:10133000600a8000000f7800f6ff37000000000010
:1013400052c1bf000080fb004300de000080fb00b4
:1013500061006000e10f500003003a00800a800045
:10136000000f7800f6ff37000000000056c1bf00f4
:101370000080fb004300de000080fb006100600095
:10138000e10f500003003a00a00a8000000f78002f
:10139000f6ff3700000000005ac1bf000080fb00cc
:1013a0004300de000080fb0061006000e10f5000a0
:1013b00003003a00c00a8000000f7800f6ff3700f3
:1013c000000000005ec1bf000080fb004300de00a3
:1013d0000080fb0061006000e10f500003003a0054
:1013e000e00a8000000f7800f6ff3700211420008b
:1013f0009140780080cfb30000c060000024a000be
:1014000042e1b700611420009140780080cfb30022
:1014100000c060000024a00046e1b700a114200035
:101420009140780080cfb30000c060000024a0008d
:101430004ae1b700e11420009140780080cfb3006a
:1014400000c060000024a0004ee1b700211520007c
:101450009140780080cfb30000c060000024a0005d
:1014600052e1b700611520009140780080cfb300b1
:1014700000c060000024a00056e1b700a1152000c4
:101480009140780080cfb30000c060000024a0002d
:101490005ae1b700e11520009140780080cfb300f9
:1014a00000c060000024a0005ee1b7000080fa00e8
:1014b000000006000000fa0021142000914078008e
:1014c00080cfb30000c0600042e1b700611420008b
:1014d0009140780080cfb30000c0600046e1b700c3
:1014e000a11420009140780080cfb30000c06000bc
:1014f0004ae1b700e11420009140780080cfb300aa
:1015000000c060004ee1b700211520009140780036
:1015100080cfb30000c0600052e1b7006115200029
:101520009140780080cfb30000c0600056e1b70062
:10153000a11520009140780080cfb30000c060006a
:101540005ae1b700e11520009140780080cfb30048
:1015500000c060005ee1b7000080fa0000000600f5
:101560000e00fa00000f78001e0078006007980057
:101570006e009000e40f50002f0032006e009000cb
:10158000e40f50000a003c006e009000e20f500093
:101590001b0032006e009000e20f50001f003c0064
:1015a0006e009000e10f50000e0032004500370041
:1015b0006e009000e60f50002d0032006e0090008b
:1015c000e50f5000230034006e009000e70f50003c
:1015d0002e0032006e009000e80f50003200320002
:1015e00038003700000a800010079800000a8000c9
:1015f00020079800000a8000300798003700370065
:10160000200a800010079800200a80002007980018
:10161000200a80003007980030003700400a800020
:1016200010079800400a800020079800400a8000b8
:101630003007980029003700600a800010079800e2
:10164000600a800020079800600a80003007980038
:1016500022003700800a800010079800800a80006e
:1016600020079800800a8000300798001b00370090
:10167000a00a800010079800a00a800020079800a8
:10168000a00a80003007980014003700c00a8000cc
:1016900010079800c00a800020079800c00a800048
:1016a000300798000d003700e00a8000100798000e
:1016b000e00a800020079800e00a800030079800c8
:1016c000060037000000eb00100798000000eb0058
:1016d000200798000000eb0030079800ae00900053
:1016e0001e009000808f5000090031008080eb00c8
:1016f0001e0090000080500040079800ce0090002f
:101700002e00900000804000400798000400370041
:101710002e0090009e0090000100500040079800ad
:10172000be0090002e009000808f50000900310014
:101730008080eb002e009000008050005007980041
:10174000ce0090003e0090000080400050079800be
:10175000040037003e009000ae00900001005000f1
:1017600050079800ce0090005e009000008040007e
:101770000000d1000080fa00000006000400fa001a
:10178000004f7800e582a90080c0b30010479800a0
:101790001e4090000004e000330032001e80fb0079
:1017a00061006000614060004401dd00912e200076
:1017b00091407800f0ceb30000c06000024070009d
:1017c000e9e2b7001e80fb000000d100004f780066
:1017d0000040eb00204798002e409000e44f50005e
:1017e00005003e00000000002e4090000040e80090
:1017f00020479800f8ff3700e9a2a8000040eb005e
:1018000020479800ae409000b0c3b30080cf500096
:1018100005003e00000000002e4090000040e8005f
:1018200020479800f7ff3700e9a2a9000040eb002d
:1018300020479800ae40900010c3b30080cf500006
:1018400005003e00000000002e4090000040e8002f
:1018500020479800f7ff37001e4090000040e90045
:1018600010479800caff37000080fa000000060009
:101870000200fa00004f780011479800e9c2a80062
:10188000e0cfb3001e4f60001e407800bbff070092
:101890001e409000b9ff0700e9c2a9000080fa00cd
:1018a000000006000400fa00e582a8000040eb00fa
:1018b000104798001e409000e94f500005003e0080
:1018c000000000001e4090000040e8001047980013
:1018d000f8ff370080c0b300104798001e4090000a
:1018e0000004e0002a0032001e80fb000000d1004e
:1018f000004f7800e7c2bf000080fb004400de001c
:101900000080fb00610060000000e0000300320086
:1019100000c8b3001e4f7000010037001e74a10004
:10192000e9a2a8000040eb0020479800ae409000dc
:10193000b0c3b30080cf500005003e00000000009f
:101940002e4090000040e80020479800f7ff370045
:10195000e9a2a9000040eb0020479800ae409000ab
:10196000b0c3b30080cf500005003e00000000006f
:101970002e4090000040e80020479800f7ff370015
:101980001e4090000040e90010479800d3ff370048
:101990001e80fb000080fa00000006000200fa0032
:1019a000004f7800e9c2a8001e04a0001e40780085
:1019b00072ff0700bbff070010479800e9c2a900ab
:1019c0001e4090000080fb000080fa00000006002e
:1019d0000400fa00004f780011479800c08d2000e5
:1019e000100798008040eb00e0c8b300a0ff07009c
:1019f0009e80fb001e009000008040009e409000f2
:101a0000104078009aff070001c8b300e0c8b30097
:101a100097ff07000080fa00000006000400fa00ab
:101a2000004f78001e80fb004400de000080fb00b9
:101a3000100798001e80fb006f006000004f7800c8
:101a40009e009000a00020000008b8001e4f40003b
:101a50001e80fb000080fa00000006000400fa006f
:101a6000004f78001e80fb00c18d20000100400067
:101a700010407800c9ff07000080fb0010079800a5
:101a80002e4090000080fb000080fa00000006005d
:101a90000200fa00e9c2a900e9a2a9000040eb0097
:101aa000104798009e409000e0c7b30080cf5000e0
:101ab00005003e00000000001e4090000040e800cd
:101ac00010479800f7ff37000040eb00e3ff0700e6
:101ad000004f78009e4078000174a1000040eb00a8
:101ae000bbff07000080fa00000006000000fa00bb
:101af000e4c2a900e4e2a800e502a900e522a900e9
:101b00008820a9009820a900212620009140780073
:101b1000c0cfb30000c060000014a00062e2b700b4
:101b200062c2bf00c041b30062e2b7006382a90095
:101b30006362a9006342a9006322a9006302a800ae
:101b400062c2a90062a2a80061e2a800e922a8007e
:101b50000400070000c4b3004d0007000080fa0035
:101b6000000006000200fa00e922a90000000000bf
:101b700060c2bf000080fb000000d1000080fb00bd
:101b8000610060000000e000020032000000000080
:101b9000f7ff3700600020004013880060c2bf00dc
:101ba0000080fb00610060000000e00002003a00dd
:101bb00000000000f9ff370040138000004f78005c
:101bc00000000000e922a8000080fa0000000600e2
:101bd0000200fa00e922a9000000000060c2bf0074
:101be0000080fb000000d1000080fb00610060006d
:101bf0000000e0000200320000000000f7ff3700a4
:101c0000500020004013880060c2bf000080fb002d
:101c1000610060000000e00002003a0000000000e7
:101c2000f9ff370040138000004f780060c2bf000a
:101c30000080fb000000d1000080fb00610060001c
:101c40000000e0000200320000000000f7ff370053
:101c50000000eb004013880060c2bf000080fb0062
:101c6000610060000000e00002003a000000000097
:101c7000f9ff370040138000004f7800000000009b
:101c8000e922a8001e80fb000080fa000000060088
:101c90000200fa00004f7800e922a90000000000cd
:101ca00060c2bf000080fb000000d1000080fb008c
:101cb000610060000000e00002003200000000004f
:101cc000f7ff3700100020004013880060c2bf00fb
:101cd0000080fb00610060000000e00002003a00ac
:101ce00000000000f9ff3700401380001047980003
:101cf00060c2bf000080fb000000d1000080fb003c
:101d0000610060000000e0000200320000000000fe
:101d1000f7ff37001e80fb004013880060c2bf0041
:101d20000080fb00610060000000e00002003a005b
:101d300000000000f9ff37004013800010479800b2
:101d400000000000e922a8000080fa000000060060
:101d50000200fa00e922a9000000000060c2bf00f2
:101d60000080fb000000d1000080fb0061006000eb
:101d70000000e0000200320000000000f7ff370022
:101d8000f00920004013880060c2bf000080fb0003
:101d9000610060000000e00002003a000000000066
:101da000f9ff370040138000004f780060c2bf0089
:101db0000080fb000000d1000080fb00610060009b
:101dc0000000e0000200320000000000f7ff3700d2
:101dd0000000eb004013880060c2bf000080fb00e1
:101de000610060000000e00002003a000000000016
:101df000f9ff370040138000004f78000000eb002f
:101e00004013880060c2bf000080fb0061006000da
:101e10000000e00002003a0000000000f9ff370077
:101e200040138000004f78000000eb004013880052
:101e300060c2bf000080fb00610060000000e000a5
:101e400002003a0000000000f9ff37004013800054
:101e5000004f780000000000e922a8000080fa008e
:101e6000000006000600fa00004f780011479800b5
:101e700022479800334798003aff0700e922a9005b
:101e800060c2bf000080fb000000d1000080fb00aa
:101e9000610060000000e00002003200000000006d
:101ea000f7ff3700200020004013880060c2bf0009
:101eb0000080fb00610060000000e00002003a00ca
:101ec00000000000f9ff37004013800040479800f1
:101ed00060c2bf000080fb000000d1000080fb005a
:101ee000610060000000e00002003200000000001d
:101ef000f7ff37001e80fb004013880060c2bf0060
:101f00000080fb00610060000000e00002003a0079
:101f100000000000f9ff37004013800040479800a0
:101f200060c2bf000080fb000000d1000080fb0009
:101f3000610060000000e0000200320000000000cc
:101f4000f7ff37001e4090000080fb004013880020
:101f500060c2bf000080fb00610060000000e00084
:101f600002003a0000000000f9ff37004013800033
:101f70004047980060c2bf000080fb000000d10015
:101f80000080fb00610060000000e0000200320001
:101f900000000000f7ff37002e4090000080fb009b
:101fa0004013880060c2bf000080fb006100600039
:101fb0000000e00002003a0000000000f9ff3700d6
:101fc000401380004047980060c2bf000080fb00c3
:101fd0000000d1000080fb00610060000000e00014
:101fe0000200320000000000f7ff37003e40900082
:101ff0000080fb004013880060c2bf000080fb002f
:10200000610060000000e00002003a0000000000f3
:10201000f9ff37004013800040479800000000009f
:1020200000000000e922a8000080fa00000006007d
:102030000400fa00004f78001147980022479800ea
:10204000e922a9000000000060c2bf000080fb0080
:102050000000d1000080fb00610060000000e00093
:102060000200320000000000f7ff370030002000bf
:102070004013880060c2bf000080fb006100600068
:102080000000e00002003a0000000000f9ff370005
:10209000401380003047980060c2bf000080fb0002
:1020a0000000d1000080fb00610060000000e00043
:1020b0000200320000000000f7ff37001e80fb0026
:1020c0004013880060c2bf000080fb006100600018
:1020d0000000e00002003a0000000000f9ff3700b5
:1020e000401380003047980060c2bf000080fb00b2
:1020f0000000d1000080fb00610060000000e000f3
:102100000200320000000000f7ff37001e40900080
:102110000080fb004013880060c2bf000080fb000d
:10212000610060000000e00002003a0000000000d2
:10213000f9ff3700401380003047980060c2bf00ad
:102140000080fb000000d1000080fb006100600007
:102150000000e0000200320000000000f7ff37003e
:102160002e4090000080fb004013880060c2bf003a
:102170000080fb00610060000000e00002003a0007
:1021800000000000f9ff370040138000304798003e
:1021900060c2bf000080fb000000d1000080fb0097
:1021a000610060000000e00002003200000000005a
:1021b000f7ff37000000eb004013880060c2bf004b
:1021c0000080fb00610060000000e00002003a00b7
:1021d00000000000f9ff37004013800030479800ee
:1021e00000000000e922a8003e4090000080fb00b3
:1021f0000080fa00000006000e00fa00000f7800d0
:102200006000b80010079800210798006000b8002f
:1022100030079800410798006000b8005007980008
:10222000610798001e00780020409000e34f5000a6
:102230002c003a001e00780020019000b0019000b0
:1022400000002000c1ff21000000610081806100ca
:102250004008de00010020001007980021079800c8
:102260001e009000ae00900063004000e080480037
:1022700010079800210798001e00780020019000a8
:10228000b001900000fc2f00310020000000610030
:10229000818061004a09dd004600de000000710017
:1022a000c608de0030079800410798001e0078003d
:1022b00020019000b0019000f003200001002000f8
:1022c00000006100818061004a09dd00c600de0077
:1022d000810071004a00dd005007980061079800f6
:1022e0000d0037001e00780020019000b001900022
:1022f000f07f20000100200000006100818061006b
:102300004209dd00ce00de00810071004200dd00e8
:1023100010079800210798001e00780010409000d8
:10232000e24f500030003a001e007800204090003c
:10233000e34f500009003a005e009000ee0090006c
:102340000220200003002000020070008380700043
:102350005007980061079800050037001e009000a4
:10236000ae0090000010a000100798002107980010
:10237000027824001e007800304090008080fb002e
:10238000000120000008b800000041009e009000fd
:1023900001087800027824001e0078003040900088
:1023a0008080fb00000120000008b8000000410010
:1023b0000080e8003e0190000208780002782400c6
:1023c0001e007800304090008080fb00000120005b
:1023d0000008b8000000410064004000de009000ea
:1023e00001087800690037001e0078000050900056
:1023f0000080fb00010020006f0160008001eb0005
:102400005e009000ee0090000000410081804900d5
:102410005007980061079800027824001e00780099
:10242000304090008080fb00000120000008b800d0
:10243000000041001e01900002087800027824008c
:102440001e007800304090008080fb0000012000da
:102450000008b800000041000080e800be009000c5
:1024600001087800027824001e00780030409000b7
:102470008080fb00000120000008b800000041003f
:10248000640040005e019000020878000278240099
:102490001e007800304090008080fb00000120008a
:1024a0000008b80000004100660140001e007800ee
:1024b000104890000080fb00c800dd001e0078007e
:1024c000004890000080fb00008940000278240052
:1024d0001e007800304090008080fb00000120004a
:1024e0000008b80000004100680140001e007800ac
:1024f000304890000080fb00c800dd001e0078001e
:10250000204890000080fb000089400002782400f1
:102510001e007800304090008080fb000001200009
:102520000008b800000041006a0140001e00780069
:10253000504890000080fb00c800dd001e007800bd
:10254000404890000080fb00008940000278240091
:102550001e007800304090008080fb0000012000c9
:102560000008b800000041006c0140001e00780027
:10257000704890000080fb00c800dd001e0078005d
:10258000604890000080fb00008940003064a80093
:102590000080fa00000006000a00fa00000f780030
:1025a0000000eb00100798000000eb0020079800e7
:1025b0006000b800300798004107980002782400b6
:1025c0001e007800304090008080fb000001200059
:1025d0000008b800000041001000780061006000b1
:1025e000100798001e0090000000e0001c003a0058
:1025f0009e017800027824001e0078003040900090
:102600008080fb00000120000008b800800041002d
:10261000c0ff2100110060004200de000100200028
:10262000a0019800b10198009e00780040c0b3005e
:10263000a0409800027824001e00780030409000ee
:102640008080fb00000120000008b800000041006d
:102650001000780062006000200798005a003700e0
:10266000027824001e007800304090008080fb003b
:10267000000120000008b8000000410010007800b0
:102680006101b800c0ff21000100200000006100ce
:102690008180610030079800410798001e01780092
:1026a0003e009000ce009000c000dd000000200041
:1026b0002001980031019800027824001e00780063
:1026c000304090008080fb00000120000008b8002e
:1026d000000041000080e800100078006101b800af
:1026e000f0ff2000010020000000610081806100f7
:1026f00030079800410798009e0278001e0278007b
:102700003e009000ce0090004609dd00ca01de00c8
:10271000830171004601dd0024009000b4009000a8
:102720000000410081804900a0029800b102980099
:10273000027824001e007800304090008080fb006a
:10274000000120000008b80000004100e400400043
:1027500000c02f00110060004a00de0001002000d0
:1027600030079800410798001e0278001e0078008c
:1027700020019000b00190003e009000ce0090003b
:102780000200400083804800200298003102980037
:102790009e00780030c0b300a0409800027824006a
:1027a0001e007800304090008080fb000001200077
:1027b0000008b80000004100e400400000202000b4
:1027c00011006000200798002e009000e10f5000db
:1027d00004003a009e00780020c0b30090409800aa
:1027e0006f0037009e00780010c0b3009040980042
:1027f0009e017800027824001e007800304090008e
:102800008080fb00000120000008b80000004100ab
:102810006600400010407800804998009e017800d2
:10282000027824001e007800304090008080fb0079
:10283000000120000008b80000004100e600400050
:1028400000f02f00110060004800de009049980061
:102850009e017800027824001e007800304090002d
:102860008080fb00000120000008b800000041004b
:102870006800400010407800a04998009e01780050
:10288000027824001e007800304090008080fb0019
:10289000000120000008b80000004100e8004000ee
:1028a00000f02f00110060004800de00b0499800e1
:1028b0009e017800027824001e00780030409000cd
:1028c0008080fb00000120000008b80000004100eb
:1028d0006a00400010407800c04998009e017800ce
:1028e000027824001e007800304090008080fb00b9
:1028f000000120000008b80000004100ea0040008c
:1029000000f02f00110060004800de00d049980060
:102910009e017800027824001e007800304090006c
:102920008080fb00000120000008b800000041008a
:102930006c00400010407800e04998009e0178004b
:10294000027824001e007800304090008080fb0058
:10295000000120000008b80000004100ec00400029
:1029600000f02f00110060004800de00f0499800e0
:102970009e017800027824001e007800304090000c
:102980008080fb00000120000008b800000041002a
:1029900064004000104078006f4060008051980053
:1029a0001e00780030409000020007000080fa000e
:1029b000000006000200fa00004f780020c4bf00ab
:1029c0000080fb000000d1000080fb00610060007f
:1029d0000000e0000500320010c0b3009e4f100060
:1029e00002003a002024a9001700370020c4bf00cd
:1029f0000080fb004200de000080fb006100600000
:102a00000000e0000500320020c0b3009e4f10001f
:102a100002003a002044a9000b00370020c4bf0088
:102a20000080fb004300de000080fb0061006000ce
:102a30000000e0000400320030c0b3009e4f1000e0
:102a400001003a002064a9000080fa00000006009e
:102a50000200fa00114020009140780080cfb300be
:102a600000c060000024a00001e4b70000c4bf0063
:102a70000080fb004500de000080fb00e40f5000fa
:102a8000faff3a000164a90001412000914078005a
:102a900000ccb30000c0600010e4b700014120008a
:102aa0009140780000ccb30000c0700010e4b70083
:102ab000214120009140780080c3b30000c0700025
:102ac00012e4b70012e4a8003141200091407800e0
:102ad00080cfb30000c060005040b30013e4b700e3
:102ae000214120009140780080cfb30000c06000f9
:102af0000024a00012e4b70012c4a80007c4bf005d
:102b00007f40600007e4b7000004a8008141200076
:102b100091407800c0cfb30000c0600018e4b70057
:102b2000e4c8bf000080fb00000f78001e007800a2
:102b3000e20f5000130032001e007800e20f500038
:102b400004003c001e007800e10f50000800320035
:102b50001a0037001e007800e30f50000e0032000c
:102b60001e007800e40f5000100032001300370000
:102b700000fe2f0080218800002420000022880011
:102b80000e00370000fe2f00802188000044200046
:102b9000002288000900370000fe2f0080218800f5
:102ba00000642000002288000400370000fe2f008f
:102bb000802188000084200000228800802180007d
:102bc0000030a000802188000122800070ff2f00cb
:102bd00000806000002288000142200091407800bf
:102be00000cfb30000c060000004a00020e4b700e4
:102bf0001404a800814120009140780030cfb30038
:102c000000c060000024a00018e4b70000fe2f0000
:102c1000a02188000002200020228800a02180003e
:102c20000030a000a02188002122800070ff2f002a
:102c3000008060002022880020c4bf006f40600038
:102c400001c2b3000140700020e4b7001424a800c2
:102c50000004a900114020009140780080cfb3000b
:102c600000c0600001e4b70000c4bf000080fb00aa
:102c70004500de000080fb000000e000faff3a00a3
:102c80000000eb0050218800502180004021880086
:102c90004021800010218800102180000021880040
:102ca00030e4a80031e4a90032e4a90033e4a9002b
:102cb00030c4bf003040b30030e4b7000000eb0088
:102cc000002188000a24a9000080fa000000060004
:102cd0000000fa000000eb00001f88000002220044
:102ce000001c880020442000401c88007000200048
:102cf000501c880060042000101c88000078200010
:102d0000201c880081e3a8000000eb00001f880061
:102d100000022000c01c880000442000001d880024
:102d200070002000101d880020022000d01c8800a8
:102d300000782000e01c880099e3a8000080fa00d9
:042d40000000060089
:020000040000fa
:0200000401f009
:04000000cf0000002d
:020000040000fa
:0200000401f009
:04000400cf00000029
:020000040000fa
:0200000401f009
:0400080007000000ed
:020000040000fa
:0200000401f009
:04000c00a20000004e
:020000040000fa
:0200000401f009
:0400100046000000a6
:020000040000fa
:0200000401f009
:04001400df00000009
:020000040000fa
:0200000401f009
:04001800e7000000fd
:020000040000fa
:10000800c4160000c4160000c4160000c416000080
:10001800c4160000c4160000c4160000c416000070
:10002800c4160000c4160000c4160000c416000060
:10003800c4160000c4160000c4160000c416000050
:10004800c4160000c4160000c4160000c416000040
:10005800c4160000c4160000c4160000c416000030
:10006800c4160000c4160000c4160000c416000020
:10007800c4160000c4160000c4160000c416000010
:10008800c4160000c4160000c4160000c416000000
:10009800c4160000c4160000d4020000c4160000f4
:1000a800c4160000c4160000c4160000dc020000dc
:1000b800c4160000c4160000c4160000c4160000d0
:1000c800c4160000c4160000c4160000c4160000c0
:1000d800c4160000c4160000c4160000b0020000d8
:1000e800c4160000c4160000c4160000c4160000a0
:1000f800c4160000c4160000c4160000c416000090
:10010800c4160000c4160000c4160000c41600007f
:10011800c4160000c4160000c4160000c41600006f
:10012800c4160000c4160000c4160000c41600005f
:10013800c4160000c4160000c4160000c41600004f
:10014800c4160000c4160000c4160000c41600003f
:10015800c4160000c4160000c4160000c41600002f
:10016800c4160000c4160000c4160000c41600001f
:10017800c4160000c4160000c4160000c41600000f
:10018800c4160000c4160000c4160000c4160000ff
:10019800c4160000c4160000c4160000c4160000ef
:1001a800c4160000c4160000c4160000c4160000df
:1001b800c4160000c4160000c4160000c4160000cf
:1001c800c4160000c4160000c4160000c4160000bf
:1001d800c4160000c4160000c4160000c4160000af
:1001e800c4160000c4160000c4160000c41600009f
:0801f800c4160000c41600004b
:020000040000fa
:10020800c4160000c4160000c4160000c41600007e
:10021800c4160000c4160000c4160000c41600006e
:10022800c4160000c4160000c4160000c41600005e
:10023800c4160000c4160000c4160000c41600004e
:10024800c4160000c4160000c4160000c41600003e
:10025800c4160000c4160000c4160000c41600002e
:10026800c4160000c4160000c4160000c41600001e
:10027800c4160000c4160000c4160000c41600000e
:10028800c4160000c4160000c4160000c4160000fe
:10029800c4160000c4160000d4020000c4160000f2
:1002a800c4160000c4160000c4160000dc020000da
:1002b800c4160000c4160000c4160000c4160000ce
:1002c800c4160000c4160000c4160000c4160000be
:1002d800c4160000c4160000c4160000b0020000d6
:1002e800c4160000c4160000c4160000c41600009e
:1002f800c4160000c4160000c4160000c41600008e
:10030800c4160000c4160000c4160000c41600007d
:10031800c4160000c4160000c4160000c41600006d
:10032800c4160000c4160000c4160000c41600005d
:10033800c4160000c4160000c4160000c41600004d
:10034800c4160000c4160000c4160000c41600003d
:10035800c4160000c4160000c4160000c41600002d
:10036800c4160000c4160000c4160000c41600001d
:10037800c4160000c4160000c4160000c41600000d
:10038800c4160000c4160000c4160000c4160000fd
:10039800c4160000c4160000c4160000c4160000ed
:1003a800c4160000c4160000c4160000c4160000dd
:1003b800c4160000c4160000c4160000c4160000cd
:1003c800c4160000c4160000c4160000c4160000bd
:1003d800c4160000c4160000c4160000c4160000ad
:1003e800c4160000c4160000c4160000c41600009d
:0803f800c4160000c416000049
:020000040000fa
:102d4400e40800000200000002000000010000008e
:102d54008047000040000000000000000008000060
:102d6400dc00000000000000dc0800000800000097
:102d7400020000008082840086888a008c000000a3
:042d8400000000004b
:020000040000fa
:042d88000000fe0049
:00000001FF
